{
  "transactions": [
    {
      "hash": "0x5d448fdc07f8088e485749b06c9bad068ba8a1b43056b953e39c64798ba68b81",
      "transactionType": "CALL",
      "contractName": "LinkToken",
      "contractAddress": "0x779877A7B0D9E8603169DdbD7836e478b4624789",
      "function": "transferAndCall(address,uint256,bytes)",
      "arguments": [
        "0x9DdfaCa8183c41ad55329BdeeD9F6A8d53168B1B",
        "3000000000000000000",
        "0xaf713289b6cb09f7002579d8927f532cd4d3cc64b7028708448a3f4c909424bb"
      ],
      "transaction": {
        "type": "0x02",
        "from": "0x34f1af42413326d1255bf02b5402737c10ffbc6a",
        "to": "0x779877a7b0d9e8603169ddbd7836e478b4624789",
        "gas": "0x1603d",
        "value": "0x0",
        "data": "0x4000aea00000000000000000000000009ddfaca8183c41ad55329bdeed9f6a8d53168b1b00000000000000000000000000000000000000000000000029a2241af62c000000000000000000000000000000000000000000000000000000000000000000600000000000000000000000000000000000000000000000000000000000000020af713289b6cb09f7002579d8927f532cd4d3cc64b7028708448a3f4c909424bb",
        "nonce": "0xf3",
        "accessList": []
      },
      "additionalContracts": [],
      "isFixedGasLimit": false
    }
  ],
  "receipts": [
    {
      "transactionHash": "0x5d448fdc07f8088e485749b06c9bad068ba8a1b43056b953e39c64798ba68b81",
      "transactionIndex": "0x7",
      "blockHash": "0xa654123f4d0992d0f29d87c2b66c4fd4cdea396d757e4083bbdaa92667ec1f80",
      "blockNumber": "0x60781e",
      "from": "0x34F1AF42413326d1255bf02B5402737C10fFbC6a",
      "to": "0x779877A7B0D9E8603169DdbD7836e478b4624789",
      "cumulativeGasUsed": "0x136bc1",
      "gasUsed": "0xf0d9",
      "contractAddress": null,
      "logs": [
        {
          "address": "0x779877A7B0D9E8603169DdbD7836e478b4624789",
          "topics": [
            "0xddf252ad1be2c89b69c2b068fc378daa952ba7f163c4a11628f55a4df523b3ef",
            "0x00000000000000000000000034f1af42413326d1255bf02b5402737c10ffbc6a",
            "0x0000000000000000000000009ddfaca8183c41ad55329bdeed9f6a8d53168b1b"
          ],
          "data": "0x00000000000000000000000000000000000000000000000029a2241af62c0000",
          "blockHash": "0xa654123f4d0992d0f29d87c2b66c4fd4cdea396d757e4083bbdaa92667ec1f80",
          "blockNumber": "0x60781e",
          "transactionHash": "0x5d448fdc07f8088e485749b06c9bad068ba8a1b43056b953e39c64798ba68b81",
          "transactionIndex": "0x7",
          "logIndex": "0x6",
          "removed": false
        },
        {
          "address": "0x779877A7B0D9E8603169DdbD7836e478b4624789",
          "topics": [
            "0xe19260aff97b920c7df27010903aeb9c8d2be5d310a2c67824cf3f15396e4c16",
            "0x00000000000000000000000034f1af42413326d1255bf02b5402737c10ffbc6a",
            "0x0000000000000000000000009ddfaca8183c41ad55329bdeed9f6a8d53168b1b"
          ],
          "data": "0x00000000000000000000000000000000000000000000000029a2241af62c000000000000000000000000000000000000000000000000000000000000000000400000000000000000000000000000000000000000000000000000000000000020af713289b6cb09f7002579d8927f532cd4d3cc64b7028708448a3f4c909424bb",
          "blockHash": "0xa654123f4d0992d0f29d87c2b66c4fd4cdea396d757e4083bbdaa92667ec1f80",
          "blockNumber": "0x60781e",
          "transactionHash": "0x5d448fdc07f8088e485749b06c9bad068ba8a1b43056b953e39c64798ba68b81",
          "transactionIndex": "0x7",
          "logIndex": "0x7",
          "removed": false
        },
        {
          "address": "0x9DdfaCa8183c41ad55329BdeeD9F6A8d53168B1B",
          "topics": [
            "0x1ced9348ff549fceab2ac57cd3a9de38edaaab274b725ee82c23e8fc8c4eec7a",
            "0xaf713289b6cb09f7002579d8927f532cd4d3cc64b7028708448a3f4c909424bb"
          ],
          "data": "0x0000000000000000000000000000000000000000000000004563918244f400000000000000000000000000000000000000000000000000006f05b59d3b200000",
          "blockHash": "0xa654123f4d0992d0f29d87c2b66c4fd4cdea396d757e4083bbdaa92667ec1f80",
          "blockNumber": "0x60781e",
          "transactionHash": "0x5d448fdc07f8088e485749b06c9bad068ba8a1b43056b953e39c64798ba68b81",
          "transactionIndex": "0x7",
          "logIndex": "0x8",
          "removed": false
        }
      ],
      "status": "0x1",
      "logsBloom": "0x00000004000000400000000000000000000000000020000000000000020000000000000000000000000000000000000000000000000000000000000000000000000000000000000000000008000000000000000000000000000020000020000008000000000000240000000000000000000000000000000000000010000040000000000000000000000000010000800000000020000000000000000001000000000000000000000000000000010000000000000000000000000004000000000000000006000000000000000000000000000000000000000100000000000000000010000000000000800000000000000000000400000000000000000000000000",
      "type": "0x2",
      "effectiveGasPrice": "0x18c211846"
    }
  ],
  "libraries": [],
  "pending": [],
  "returns": {},
  "timestamp": 1721147402,
  "chain": 11155111,
  "commit": "c597018"
}